:100000000C9446000C9465000C9465000C946500FB
:100010000C9465000C9465000C9465000C946500CC
:100020000C9465000C9465000C9465000C946500BC
:100030000C9465000C9465000C9465000C946500AC
:100040000C9465000C9465000C9465000C9465009C
:100050000C9465000C9465000C9465000C9465008C
:100060000C9465000C9465000C9465000C9465007C
:100070000C9465000C9465000C9465000C9465006C
:100080000C9465000C9465000C94650011241FBE4F
:10009000CFEFD0E4DEBFCDBF11E0A0E0B1E0E0E8FB
:1000A000F2E000E00BBF02C007900D92AE30B10746
:1000B000D9F711E0AEE0B1E001C01D92A031B10767
:1000C000E1F70E9421010C943E010C940000CF93B3
:1000D000DF9300D01F92CDB7DEB789837B836A831D
:1000E00089818A3031F48A819B81BC018DE00E9434
:1000F000670080EC90E0FC018081882F90E08072A6
:1001000099270097B1F386EC90E02981FC012083C8
:1001100080E090E00F900F900F90DF91CF910895C5
:10012000CF93DF931F92CDB7DEB780E290E0FC0162
:100130008081898380910E0190910F018230910519
:10014000C9F18330910530F4009759F08130910561
:1001500001F14CC08330910559F084309105D9F1FB
:1001600045C083E090E090930F0180930E013EC064
:100170008981843039F481E090E090930F0180937D
:100180000E0134C083E090E090930F0180930E0144
:100190002DC08981882339F482E090E090930F018B
:1001A00080930E0123C083E090E090930F01809331
:1001B0000E011CC08981823039F484E090E0909374
:1001C0000F0180930E0112C083E090E090930F0125
:1001D00080930E010BC08981803839F483E090E070
:1001E00090930F0180930E0100C0000080910E01DA
:1001F00090910F0182309105D9F08330910530F450
:10020000009759F081309105A9F017C0833091050E
:1002100099F08430910531F010C085E290E0FC0146
:1002200010820BC085E290E021E0FC01208305C034
:10023000000003C0000001C000000F90DF91CF91CB
:100240000895CF93DF93CDB7DEB781E290E0FC0154
:10025000108282E290E02FEFFC01208384E290E0A4
:100260002FEFFC01208385E290E0FC0110821092C8
:100270000F0110920E010E949000FDCFF894FFCF65
:0E028000000000020000000067000000000007
:00000001FF
